{
  "_format": "hh-sol-artifact-1",
  "contractName": "ItpStakingV1",
  "sourceName": "contracts/ItpStakingV1.sol",
  "abi": [
    {
      "inputs": [
        {
          "internalType": "address",
          "name": "initialOwner",
          "type": "address"
        },
        {
          "internalType": "contract IERC20",
          "name": "token",
          "type": "address"
        },
        {
          "internalType": "uint256",
          "name": "lockTimeDuration",
          "type": "uint256"
        },
        {
          "internalType": "uint256[]",
          "name": "initialRewardsRatePerLockMultiplierBps",
          "type": "uint256[]"
        }
      ],
      "stateMutability": "nonpayable",
      "type": "constructor"
    },
    {
      "inputs": [
        {
          "internalType": "address",
          "name": "target",
          "type": "address"
        }
      ],
      "name": "AddressEmptyCode",
      "type": "error"
    },
    {
      "inputs": [
        {
          "internalType": "address",
          "name": "account",
          "type": "address"
        }
      ],
      "name": "AddressInsufficientBalance",
      "type": "error"
    },
    {
      "inputs": [],
      "name": "FailedInnerCall",
      "type": "error"
    },
    {
      "inputs": [
        {
          "internalType": "uint256",
          "name": "penalty",
          "type": "uint256"
        }
      ],
      "name": "InsufficientPenalty",
      "type": "error"
    },
    {
      "inputs": [
        {
          "internalType": "uint256",
          "name": "rewardsLeft",
          "type": "uint256"
        }
      ],
      "name": "InsufficientRewards",
      "type": "error"
    },
    {
      "inputs": [
        {
          "internalType": "uint256",
          "name": "amount",
          "type": "uint256"
        }
      ],
      "name": "InvalidAmount",
      "type": "error"
    },
    {
      "inputs": [
        {
          "internalType": "uint256",
          "name": "bps",
          "type": "uint256"
        }
      ],
      "name": "InvalidBps",
      "type": "error"
    },
    {
      "inputs": [
        {
          "internalType": "uint256",
          "name": "unlockTime",
          "type": "uint256"
        }
      ],
      "name": "InvalidEarlyWithdraw",
      "type": "error"
    },
    {
      "inputs": [
        {
          "internalType": "uint256",
          "name": "maxDuration",
          "type": "uint256"
        },
        {
          "internalType": "uint256",
          "name": "duration",
          "type": "uint256"
        }
      ],
      "name": "InvalidLockDuration",
      "type": "error"
    },
    {
      "inputs": [
        {
          "internalType": "uint256",
          "name": "lockDuration",
          "type": "uint256"
        }
      ],
      "name": "InvalidLockExtension",
      "type": "error"
    },
    {
      "inputs": [
        {
          "internalType": "uint256",
          "name": "lockMultiplier",
          "type": "uint256"
        }
      ],
      "name": "InvalidLockMultiplier",
      "type": "error"
    },
    {
      "inputs": [
        {
          "internalType": "uint256",
          "name": "length",
          "type": "uint256"
        }
      ],
      "name": "InvalidRewardsRatePerLockMultiplierBpsLength",
      "type": "error"
    },
    {
      "inputs": [
        {
          "internalType": "uint256[]",
          "name": "rewardsBps",
          "type": "uint256[]"
        }
      ],
      "name": "InvalidRewardsRatePerLockMultiplierBpsOrder",
      "type": "error"
    },
    {
      "inputs": [
        {
          "internalType": "uint256",
          "name": "tokenId",
          "type": "uint256"
        }
      ],
      "name": "InvalidTokenId",
      "type": "error"
    },
    {
      "inputs": [
        {
          "internalType": "uint256",
          "name": "maxStakesLength",
          "type": "uint256"
        }
      ],
      "name": "InvalidTokenIdsLength",
      "type": "error"
    },
    {
      "inputs": [
        {
          "internalType": "uint256",
          "name": "tokenId",
          "type": "uint256"
        },
        {
          "internalType": "uint256",
          "name": "amount",
          "type": "uint256"
        },
        {
          "internalType": "uint256",
          "name": "unlockTime",
          "type": "uint256"
        }
      ],
      "name": "InvalidUnlockTime",
      "type": "error"
    },
    {
      "inputs": [
        {
          "internalType": "address",
          "name": "owner",
          "type": "address"
        }
      ],
      "name": "OwnableInvalidOwner",
      "type": "error"
    },
    {
      "inputs": [
        {
          "internalType": "address",
          "name": "account",
          "type": "address"
        }
      ],
      "name": "OwnableUnauthorizedAccount",
      "type": "error"
    },
    {
      "inputs": [],
      "name": "ReentrancyGuardReentrantCall",
      "type": "error"
    },
    {
      "inputs": [
        {
          "internalType": "address",
          "name": "token",
          "type": "address"
        }
      ],
      "name": "SafeERC20FailedOperation",
      "type": "error"
    },
    {
      "anonymous": false,
      "inputs": [
        {
          "indexed": true,
          "internalType": "address",
          "name": "caller",
          "type": "address"
        },
        {
          "indexed": false,
          "internalType": "uint256",
          "name": "amount",
          "type": "uint256"
        },
        {
          "indexed": false,
          "internalType": "uint256",
          "name": "totalPenalty",
          "type": "uint256"
        },
        {
          "indexed": false,
          "internalType": "uint256",
          "name": "totalBurned",
          "type": "uint256"
        }
      ],
      "name": "BurnPenalty",
      "type": "event"
    },
    {
      "anonymous": false,
      "inputs": [
        {
          "indexed": true,
          "internalType": "address",
          "name": "caller",
          "type": "address"
        },
        {
          "indexed": false,
          "internalType": "uint256",
          "name": "amount",
          "type": "uint256"
        },
        {
          "indexed": false,
          "internalType": "uint256",
          "name": "totalPenalty",
          "type": "uint256"
        },
        {
          "indexed": false,
          "internalType": "uint256",
          "name": "rewardsLeft",
          "type": "uint256"
        }
      ],
      "name": "ConvertPenaltyIntoRewards",
      "type": "event"
    },
    {
      "anonymous": false,
      "inputs": [
        {
          "indexed": true,
          "internalType": "address",
          "name": "caller",
          "type": "address"
        },
        {
          "indexed": false,
          "internalType": "uint256",
          "name": "tokenId",
          "type": "uint256"
        },
        {
          "indexed": false,
          "internalType": "uint256",
          "name": "amount",
          "type": "uint256"
        },
        {
          "indexed": false,
          "internalType": "uint256",
          "name": "rewards",
          "type": "uint256"
        },
        {
          "indexed": false,
          "internalType": "uint256",
          "name": "lockTime",
          "type": "uint256"
        },
        {
          "indexed": false,
          "internalType": "uint256",
          "name": "unlockTime",
          "type": "uint256"
        }
      ],
      "name": "Deposit",
      "type": "event"
    },
    {
      "anonymous": false,
      "inputs": [
        {
          "indexed": true,
          "internalType": "address",
          "name": "caller",
          "type": "address"
        },
        {
          "indexed": false,
          "internalType": "uint256",
          "name": "amount",
          "type": "uint256"
        },
        {
          "indexed": false,
          "internalType": "uint256",
          "name": "totalRewards",
          "type": "uint256"
        },
        {
          "indexed": false,
          "internalType": "uint256",
          "name": "rewardsLeft",
          "type": "uint256"
        }
      ],
      "name": "DepositRewards",
      "type": "event"
    },
    {
      "anonymous": false,
      "inputs": [
        {
          "indexed": true,
          "internalType": "address",
          "name": "caller",
          "type": "address"
        },
        {
          "indexed": false,
          "internalType": "uint256",
          "name": "tokenId",
          "type": "uint256"
        },
        {
          "indexed": false,
          "internalType": "uint256",
          "name": "amount",
          "type": "uint256"
        },
        {
          "indexed": false,
          "internalType": "uint256",
          "name": "penaltyAmount",
          "type": "uint256"
        }
      ],
      "name": "EarlyWithdraw",
      "type": "event"
    },
    {
      "anonymous": false,
      "inputs": [
        {
          "indexed": true,
          "internalType": "address",
          "name": "caller",
          "type": "address"
        },
        {
          "indexed": false,
          "internalType": "uint256",
          "name": "tokenId",
          "type": "uint256"
        },
        {
          "indexed": false,
          "internalType": "uint256",
          "name": "amount",
          "type": "uint256"
        },
        {
          "indexed": false,
          "internalType": "uint256",
          "name": "rewards",
          "type": "uint256"
        },
        {
          "indexed": false,
          "internalType": "uint256",
          "name": "lockTime",
          "type": "uint256"
        },
        {
          "indexed": false,
          "internalType": "uint256",
          "name": "unlockTime",
          "type": "uint256"
        }
      ],
      "name": "ExtendLock",
      "type": "event"
    },
    {
      "anonymous": false,
      "inputs": [
        {
          "indexed": true,
          "internalType": "address",
          "name": "previousOwner",
          "type": "address"
        },
        {
          "indexed": true,
          "internalType": "address",
          "name": "newOwner",
          "type": "address"
        }
      ],
      "name": "OwnershipTransferred",
      "type": "event"
    },
    {
      "anonymous": false,
      "inputs": [
        {
          "indexed": true,
          "internalType": "address",
          "name": "caller",
          "type": "address"
        },
        {
          "indexed": false,
          "internalType": "uint256",
          "name": "bps",
          "type": "uint256"
        }
      ],
      "name": "SetPenaltyRateBps",
      "type": "event"
    },
    {
      "anonymous": false,
      "inputs": [
        {
          "indexed": true,
          "internalType": "address",
          "name": "caller",
          "type": "address"
        },
        {
          "indexed": false,
          "internalType": "uint256[]",
          "name": "rewardsRatePerLockMultiplierBps",
          "type": "uint256[]"
        }
      ],
      "name": "SetRewardsRatePerLockMultiplierBps",
      "type": "event"
    },
    {
      "anonymous": false,
      "inputs": [
        {
          "indexed": true,
          "internalType": "address",
          "name": "caller",
          "type": "address"
        },
        {
          "indexed": false,
          "internalType": "uint256[]",
          "name": "tokenIds",
          "type": "uint256[]"
        },
        {
          "indexed": false,
          "internalType": "uint256",
          "name": "amount",
          "type": "uint256"
        }
      ],
      "name": "Withdraw",
      "type": "event"
    },
    {
      "anonymous": false,
      "inputs": [
        {
          "indexed": true,
          "internalType": "address",
          "name": "caller",
          "type": "address"
        },
        {
          "indexed": false,
          "internalType": "uint256",
          "name": "amount",
          "type": "uint256"
        },
        {
          "indexed": false,
          "internalType": "uint256",
          "name": "totalPenalty",
          "type": "uint256"
        }
      ],
      "name": "WithdrawPenalty",
      "type": "event"
    },
    {
      "anonymous": false,
      "inputs": [
        {
          "indexed": true,
          "internalType": "address",
          "name": "caller",
          "type": "address"
        },
        {
          "indexed": false,
          "internalType": "uint256",
          "name": "amount",
          "type": "uint256"
        },
        {
          "indexed": false,
          "internalType": "uint256",
          "name": "totalRewards",
          "type": "uint256"
        },
        {
          "indexed": false,
          "internalType": "uint256",
          "name": "rewardsLeft",
          "type": "uint256"
        }
      ],
      "name": "WithdrawRewards",
      "type": "event"
    },
    {
      "inputs": [],
      "name": "MAX_BASE_LOCK_DURATION",
      "outputs": [
        {
          "internalType": "uint256",
          "name": "",
          "type": "uint256"
        }
      ],
      "stateMutability": "view",
      "type": "function"
    },
    {
      "inputs": [],
      "name": "MAX_LOCK_MULTIPLIER",
      "outputs": [
        {
          "internalType": "uint8",
          "name": "",
          "type": "uint8"
        }
      ],
      "stateMutability": "view",
      "type": "function"
    },
    {
      "inputs": [],
      "name": "MAX_PENALTY_RATE_BPS",
      "outputs": [
        {
          "internalType": "uint256",
          "name": "",
          "type": "uint256"
        }
      ],
      "stateMutability": "view",
      "type": "function"
    },
    {
      "inputs": [],
      "name": "MAX_REWARDS_RATE_BPS",
      "outputs": [
        {
          "internalType": "uint256",
          "name": "",
          "type": "uint256"
        }
      ],
      "stateMutability": "view",
      "type": "function"
    },
    {
      "inputs": [
        {
          "internalType": "uint256",
          "name": "amount",
          "type": "uint256"
        }
      ],
      "name": "burnPenalty",
      "outputs": [],
      "stateMutability": "nonpayable",
      "type": "function"
    },
    {
      "inputs": [
        {
          "internalType": "uint256",
          "name": "amount",
          "type": "uint256"
        }
      ],
      "name": "convertPenaltyIntoRewards",
      "outputs": [],
      "stateMutability": "nonpayable",
      "type": "function"
    },
    {
      "inputs": [
        {
          "internalType": "uint256",
          "name": "amount",
          "type": "uint256"
        },
        {
          "internalType": "uint256",
          "name": "lockMultiplier",
          "type": "uint256"
        }
      ],
      "name": "deposit",
      "outputs": [],
      "stateMutability": "nonpayable",
      "type": "function"
    },
    {
      "inputs": [
        {
          "internalType": "uint256",
          "name": "amount",
          "type": "uint256"
        }
      ],
      "name": "depositRewards",
      "outputs": [],
      "stateMutability": "nonpayable",
      "type": "function"
    },
    {
      "inputs": [
        {
          "internalType": "uint256",
          "name": "tokenId",
          "type": "uint256"
        }
      ],
      "name": "earlyWithdraw",
      "outputs": [],
      "stateMutability": "nonpayable",
      "type": "function"
    },
    {
      "inputs": [
        {
          "internalType": "uint256",
          "name": "tokenId",
          "type": "uint256"
        },
        {
          "internalType": "uint256",
          "name": "lockMultiplier",
          "type": "uint256"
        }
      ],
      "name": "extendLock",
      "outputs": [],
      "stateMutability": "nonpayable",
      "type": "function"
    },
    {
      "inputs": [],
      "name": "getRewardsRatePerLockMultiplierBps",
      "outputs": [
        {
          "internalType": "uint256[]",
          "name": "",
          "type": "uint256[]"
        }
      ],
      "stateMutability": "view",
      "type": "function"
    },
    {
      "inputs": [
        {
          "internalType": "address",
          "name": "account",
          "type": "address"
        }
      ],
      "name": "getStakeInfo",
      "outputs": [
        {
          "components": [
            {
              "internalType": "uint256",
              "name": "tokenId",
              "type": "uint256"
            },
            {
              "internalType": "uint256",
              "name": "depositAmount",
              "type": "uint256"
            },
            {
              "internalType": "uint256",
              "name": "rewardsAmount",
              "type": "uint256"
            },
            {
              "internalType": "uint256",
              "name": "lockTime",
              "type": "uint256"
            },
            {
              "internalType": "uint256",
              "name": "unlockTime",
              "type": "uint256"
            }
          ],
          "internalType": "struct ItpStakingV1.StakeInfo[]",
          "name": "stakeInfo",
          "type": "tuple[]"
        }
      ],
      "stateMutability": "view",
      "type": "function"
    },
    {
      "inputs": [],
      "name": "getVaultInfo",
      "outputs": [
        {
          "internalType": "uint256",
          "name": "_totalStaked",
          "type": "uint256"
        },
        {
          "internalType": "uint256",
          "name": "_totalRewards",
          "type": "uint256"
        },
        {
          "internalType": "uint256",
          "name": "_totalRewardsLeft",
          "type": "uint256"
        },
        {
          "internalType": "uint256",
          "name": "_totalPenalty",
          "type": "uint256"
        },
        {
          "internalType": "uint256",
          "name": "_totalPenaltyBurned",
          "type": "uint256"
        },
        {
          "internalType": "uint256[]",
          "name": "_rewardsRatePerLockMultiplierBps",
          "type": "uint256[]"
        },
        {
          "internalType": "uint256",
          "name": "_penaltyRateBps",
          "type": "uint256"
        }
      ],
      "stateMutability": "view",
      "type": "function"
    },
    {
      "inputs": [],
      "name": "lockDuration",
      "outputs": [
        {
          "internalType": "uint256",
          "name": "",
          "type": "uint256"
        }
      ],
      "stateMutability": "view",
      "type": "function"
    },
    {
      "inputs": [],
      "name": "maxLockDuration",
      "outputs": [
        {
          "internalType": "uint256",
          "name": "",
          "type": "uint256"
        }
      ],
      "stateMutability": "view",
      "type": "function"
    },
    {
      "inputs": [],
      "name": "owner",
      "outputs": [
        {
          "internalType": "address",
          "name": "",
          "type": "address"
        }
      ],
      "stateMutability": "view",
      "type": "function"
    },
    {
      "inputs": [],
      "name": "penaltyRateBps",
      "outputs": [
        {
          "internalType": "uint256",
          "name": "",
          "type": "uint256"
        }
      ],
      "stateMutability": "view",
      "type": "function"
    },
    {
      "inputs": [],
      "name": "renounceOwnership",
      "outputs": [],
      "stateMutability": "nonpayable",
      "type": "function"
    },
    {
      "inputs": [],
      "name": "rewardsLeft",
      "outputs": [
        {
          "internalType": "uint256",
          "name": "",
          "type": "uint256"
        }
      ],
      "stateMutability": "view",
      "type": "function"
    },
    {
      "inputs": [
        {
          "internalType": "uint256",
          "name": "",
          "type": "uint256"
        }
      ],
      "name": "rewardsRatePerLockMultiplierBps",
      "outputs": [
        {
          "internalType": "uint256",
          "name": "",
          "type": "uint256"
        }
      ],
      "stateMutability": "view",
      "type": "function"
    },
    {
      "inputs": [],
      "name": "rewardsRatePerLockMultiplierBpsLength",
      "outputs": [
        {
          "internalType": "uint256",
          "name": "",
          "type": "uint256"
        }
      ],
      "stateMutability": "view",
      "type": "function"
    },
    {
      "inputs": [
        {
          "internalType": "uint256",
          "name": "bps",
          "type": "uint256"
        }
      ],
      "name": "setPenaltyRateBps",
      "outputs": [],
      "stateMutability": "nonpayable",
      "type": "function"
    },
    {
      "inputs": [
        {
          "internalType": "uint256[]",
          "name": "_rewardsRatePerLockMultiplierBps",
          "type": "uint256[]"
        }
      ],
      "name": "setRewardsRatePerLockMultiplierBps",
      "outputs": [],
      "stateMutability": "nonpayable",
      "type": "function"
    },
    {
      "inputs": [
        {
          "internalType": "address",
          "name": "account",
          "type": "address"
        }
      ],
      "name": "stakedBalanceOf",
      "outputs": [
        {
          "internalType": "uint256",
          "name": "",
          "type": "uint256"
        }
      ],
      "stateMutability": "view",
      "type": "function"
    },
    {
      "inputs": [],
      "name": "stakedToken",
      "outputs": [
        {
          "internalType": "contract IERC20",
          "name": "",
          "type": "address"
        }
      ],
      "stateMutability": "view",
      "type": "function"
    },
    {
      "inputs": [],
      "name": "totalPenalty",
      "outputs": [
        {
          "internalType": "uint256",
          "name": "",
          "type": "uint256"
        }
      ],
      "stateMutability": "view",
      "type": "function"
    },
    {
      "inputs": [],
      "name": "totalPenaltyBurned",
      "outputs": [
        {
          "internalType": "uint256",
          "name": "",
          "type": "uint256"
        }
      ],
      "stateMutability": "view",
      "type": "function"
    },
    {
      "inputs": [],
      "name": "totalRewards",
      "outputs": [
        {
          "internalType": "uint256",
          "name": "",
          "type": "uint256"
        }
      ],
      "stateMutability": "view",
      "type": "function"
    },
    {
      "inputs": [],
      "name": "totalStaked",
      "outputs": [
        {
          "internalType": "uint256",
          "name": "",
          "type": "uint256"
        }
      ],
      "stateMutability": "view",
      "type": "function"
    },
    {
      "inputs": [
        {
          "internalType": "address",
          "name": "newOwner",
          "type": "address"
        }
      ],
      "name": "transferOwnership",
      "outputs": [],
      "stateMutability": "nonpayable",
      "type": "function"
    },
    {
      "inputs": [
        {
          "internalType": "uint256[]",
          "name": "tokenIds",
          "type": "uint256[]"
        }
      ],
      "name": "withdraw",
      "outputs": [],
      "stateMutability": "nonpayable",
      "type": "function"
    },
    {
      "inputs": [
        {
          "internalType": "uint256",
          "name": "amount",
          "type": "uint256"
        }
      ],
      "name": "withdrawPenalty",
      "outputs": [],
      "stateMutability": "nonpayable",
      "type": "function"
    },
    {
      "inputs": [
        {
          "internalType": "uint256",
          "name": "amount",
          "type": "uint256"
        }
      ],
      "name": "withdrawRewards",
      "outputs": [],
      "stateMutability": "nonpayable",
      "type": "function"
    }
  ],
  "bytecode": "0x6101006040526107d06004553480156200001857600080fd5b50604051620024fa380380620024fa8339810160408190526200003b9162000330565b836001600160a01b0381166200006c57604051631e4fbdf760e01b8152600060048201526024015b60405180910390fd5b6200007781620000dd565b506001805562000087826200012d565b620000928162000164565b6001600160a01b03831660805260a08290528051620000b99060039060208401906200029d565b50805160e081905260a051620000cf9162000445565b60c05250620004d792505050565b600080546001600160a01b038381166001600160a01b0319831681178455604051919092169283917f8be0079c531659141344cd1fd0a4f28419497f9722a3daafe3b4186f6b6457e09190a35050565b6301e1338081111562000161576040516364e9b37760e01b81526301e1338060048201526024810182905260440162000063565b50565b8051801580620001745750600481115b806200018f575060e051158015906200018f575060e0518114155b15620001b25760405163b20b89bf60e01b81526004810182905260240162000063565b60005b8181101562000270578015801590620002145750828181518110620001de57620001de62000465565b602002602001015183600183620001f691906200047b565b8151811062000209576200020962000465565b602002602001015110155b156200023a578260405160016226da7960e01b0319815260040162000063919062000491565b6200026783828151811062000253576200025362000465565b60200260200101516200027560201b60201c565b600101620001b5565b505050565b6127108111156200016157604051632e109e9f60e01b81526004810182905260240162000063565b828054828255906000526020600020908101928215620002db579160200282015b82811115620002db578251825591602001919060010190620002be565b50620002e9929150620002ed565b5090565b5b80821115620002e95760008155600101620002ee565b6001600160a01b03811681146200016157600080fd5b634e487b7160e01b600052604160045260246000fd5b600080600080608085870312156200034757600080fd5b8451620003548162000304565b80945050602080860151620003698162000304565b6040870151606088015191955093506001600160401b03808211156200038e57600080fd5b818801915088601f830112620003a357600080fd5b815181811115620003b857620003b86200031a565b8060051b604051601f19603f83011681018181108582111715620003e057620003e06200031a565b60405291825284820192508381018501918b831115620003ff57600080fd5b938501935b828510156200041f5784518452938501939285019262000404565b989b979a50959850505050505050565b634e487b7160e01b600052601160045260246000fd5b80820281158282048414176200045f576200045f6200042f565b92915050565b634e487b7160e01b600052603260045260246000fd5b818103818111156200045f576200045f6200042f565b6020808252825182820181905260009190848201906040850190845b81811015620004cb57835183529284019291840191600101620004ad565b50909695505050505050565b60805160a05160c05160e051611f95620005656000396000818161022f015281816111fa015281816116dd0152611707015260008181610332015261135701526000818161019501526113140152600081816103cb015281816107650152818161096001528181610ade01528181610bae01528181610d1801528181610f5901526110110152611f956000f3fe608060405234801561001057600080fd5b506004361061018b5760003560e01c80630455444314610190578063070d66bf146101ca5780630e15561a146101df5780630ff61053146101e8578063136d8687146101fb578063167653911461020e57806321de267c1461022157806324486e321461022a5780632631848914610251578063525702cf1461026457806353cca5b7146102775780636b5b969614610280578063715018a6146102935780637c5c5c501461029b5780637f8fee05146102b05780637f98aa71146102bb578063817b1cd2146102d65780638bdf67f2146102df5780638da5cb5b146102f25780639342c8f414610307578063983d95ce1461031a578063a16cdbb11461032d578063a8bc58f214610354578063b0b915171461035d578063b7b32e0014610377578063c34531531461038a578063c370e229146103aa578063c42d48f9146103b3578063cc7a262e146103c6578063d6c0527c146103ed578063e2bbb158146103f6578063e6af61c814610409578063f2fde38b14610412575b600080fd5b6101b77f000000000000000000000000000000000000000000000000000000000000000081565b6040519081526020015b60405180910390f35b6101dd6101d8366004611b65565b610425565b005b6101b760065481565b6101dd6101f6366004611b87565b6105ba565b6101b7610209366004611b87565b610649565b6101b761021c366004611ba0565b61066a565b6101b760045481565b6101b77f000000000000000000000000000000000000000000000000000000000000000081565b6101dd61025f366004611b87565b6106e5565b6101dd610272366004611b87565b61072d565b6101b761271081565b6101dd61028e366004611b87565b610847565b6101dd6109d7565b6102a36109eb565b6040516101c19190611c05565b6101b76301e1338081565b6102c3610a43565b6040516101c19796959493929190611c18565b6101b760075481565b6101dd6102ed366004611b87565b610ab8565b6102fa610b70565b6040516101c19190611c5d565b6101dd610315366004611b87565b610b7f565b6101dd610328366004611c87565b610c3f565b6101b77f000000000000000000000000000000000000000000000000000000000000000081565b6101b760055481565b610365600481565b60405160ff90911681526020016101c1565b6101dd610385366004611c87565b610d7a565b61039d610398366004611ba0565b610dd9565b6040516101c19190611d44565b6101b760095481565b6101dd6103c1366004611b87565b610f2a565b6102fa7f000000000000000000000000000000000000000000000000000000000000000081565b6101b76107d081565b6101dd610404366004611b65565b610fd3565b6101b760085481565b6101dd610420366004611ba0565b611163565b61042f33836111a7565b610438816111ee565b60006104438361123d565b905060006104518284611266565b905061045c816112e4565b60006104678461130d565b6000868152600b60205260409020600401549091504210156104cb576000858152600b602052604090206004015461049f9082611339565b6000858152600b6020526040812060040180548392906104c0908490611dc8565b909155506105009050565b6000858152600b602052604090204260039091018190556104ed908290611dc8565b6000868152600b60205260409020600401555b6000858152600b602052604081206002018054849290610521908490611dc8565b92505081905550816005600082825461053a9190611ddb565b9250508190555081600760008282546105539190611dc8565b90915550506000858152600b6020526040908190206003810154600490910154915133927f1be8dc5b7d6fed0d23bed7e5a436ec2378f7cac942849b87138664ea48af1ec7926105ab928a9289928992909190611dee565b60405180910390a25050505050565b6105c261139f565b6105cb816113d1565b6105d4816113f5565b80600860008282546105e69190611ddb565b9250508190555080600560008282546105ff9190611dc8565b909155505060085460055460405133927febf4a93b981a033029447fcd768955bb1caa07617b2b2d753fe314480bd2dd289261063e9286929190611e11565b60405180910390a250565b6003818154811061065957600080fd5b600091825260209091200154905081565b6001600160a01b0381166000908152600a60205260408120819061068d9061141e565b90506000805b828110156106dd576001600160a01b0385166000908152600a602052604081206106bd9083611428565b90506106c88161123d565b6106d29084611dc8565b925050600101610693565b509392505050565b6106ed61139f565b6106f68161143b565b600481905560405181815233907fc7a07d6891209d527222e438cd04f20eb4d0c7743479f9442eca3c751fca044a9060200161063e565b610735611461565b61073d61139f565b610746816113d1565b61074f816113f5565b604051630852cd8d60e31b8152600481018290527f00000000000000000000000000000000000000000000000000000000000000006001600160a01b0316906342966c6890602401600060405180830381600087803b1580156107b157600080fd5b505af11580156107c5573d6000803e3d6000fd5b5050505080600960008282546107db9190611dc8565b9250508190555080600860008282546107f49190611ddb565b909155505060085460095460405133927f5a49197d018e5edd8887763865834ae8af8a265b14eb26aff40235892fad6a5f926108339286929190611e11565b60405180910390a261084460018055565b50565b61084f611461565b61085933826111a7565b6108628161148b565b6000818152600b602052604081206001810154600382015460049092015461088b9290426114d4565b6000838152600b6020526040812060010154919250906108ac908390611ddb565b905081600860008282546108c09190611dc8565b90915550506000838152600b602052604081206002015460058054919290916108ea908490611dc8565b909155506108f990508361123d565b6007600082825461090a9190611ddb565b90915550506000838152600b60209081526040808320838155600181018490556002810184905560038101849055600401839055338352600a9091529020610952908461155b565b506109876001600160a01b037f0000000000000000000000000000000000000000000000000000000000000000163383611567565b336001600160a01b03167fe90768c97e3dab1b6c2d329815945f65d700d4da35edf5fd11fa252a2b8736408483856040516109c493929190611e11565b60405180910390a2505061084460018055565b6109df61139f565b6109e960006115cb565b565b60606003805480602002602001604051908101604052809291908181526020018280548015610a3957602002820191906000526020600020905b815481526020019060010190808311610a25575b5050505050905090565b60075460065460055460085460095460038054604080516020808402820181019092528281526060936000939192909190830182828015610aa357602002820191906000526020600020905b815481526020019060010190808311610a8f575b50505050509150600454905090919293949596565b610ac0611461565b610ac861139f565b610ad1816113d1565b610b066001600160a01b037f00000000000000000000000000000000000000000000000000000000000000001633308461161b565b8060056000828254610b189190611dc8565b925050819055508060066000828254610b319190611dc8565b909155505060065460055460405133927f8c39852a077723f57930139d1fc5f7390505c947cd53471a68fee798aba4cd2c926108339286929190611e11565b6000546001600160a01b031690565b610b87611461565b610b8f61139f565b610b98816113d1565b610ba1816112e4565b610bd56001600160a01b037f0000000000000000000000000000000000000000000000000000000000000000163383611567565b8060056000828254610be79190611ddb565b925050819055508060066000828254610c009190611ddb565b909155505060065460055460405133927f176504c4a37471f73be6d5ca2f9555efb2abab978cf32a3039e5ec703216c5eb926108339286929190611e11565b610c47611461565b8051610c5281611654565b6000805b82811015610cf2576000848281518110610c7257610c72611e27565b60200260200101519050610c8633826111a7565b610c8f81611678565b610c988161123d565b610ca29084611dc8565b6000828152600b60209081526040808320838155600181018490556002810184905560038101849055600401839055338352600a9091529020909350610ce8908261155b565b5050600101610c56565b508060076000828254610d059190611ddb565b90915550610d3f90506001600160a01b037f0000000000000000000000000000000000000000000000000000000000000000163383611567565b336001600160a01b03167fdc773daa5d6fcbffbef2cd461d3835a6ae3e00d1acd48364d883301acd1c3c4a84836040516109c4929190611e3d565b610d8261139f565b610d8b816116c6565b8051610d9e906003906020840190611b05565b50336001600160a01b03167f1f2cbc12fc8ae7b19aae091740840bd5b9d6330070f1e0f44461bd098b59acb6600360405161063e9190611e5f565b6001600160a01b0381166000908152600a6020526040812060609190610dfe9061141e565b9050806001600160401b03811115610e1857610e18611c71565b604051908082528060200260200182016040528015610e7b57816020015b610e686040518060a0016040528060008152602001600081526020016000815260200160008152602001600081525090565b815260200190600190039081610e365790505b50915060005b81811015610f23576001600160a01b0384166000908152600a60205260408120610eab9083611428565b9050600b60008281526020019081526020016000206040518060a001604052908160008201548152602001600182015481526020016002820154815260200160038201548152602001600482015481525050848381518110610f0f57610f0f611e27565b602090810291909101015250600101610e81565b5050919050565b610f32611461565b610f3a61139f565b610f43816113d1565b610f4c816113f5565b610f806001600160a01b037f0000000000000000000000000000000000000000000000000000000000000000163383611567565b8060086000828254610f929190611ddb565b909155505060085460405133917fe3f966d8d22399b4fb179621d9c066615897e2f653f3f20b59bd6f90832867d69161083391858252602082015260400190565b610fdb611461565b610fe4826113d1565b610fed816111ee565b6000610ff98383611266565b9050611004816112e4565b6110396001600160a01b037f00000000000000000000000000000000000000000000000000000000000000001633308661161b565b600060026000815461104a90611ea6565b91829055509050600061105c8461130d565b6110669042611dc8565b336000908152600a6020526040902090915061108290836117f0565b506040805160a08101825283815260208082018881528284018781524260608501908152608085018781526000898152600b90955295842094518555915160018501555160028401555160038301559151600490910155600580548592906110eb908490611ddb565b909155506110fb90508386611dc8565b6007600082825461110c9190611dc8565b909155505060405133907ff943cf10ef4d1e3239f4716ddecdf546e8ba8ab0e41deafd9a71a99936827e459061114b9085908990889042908890611dee565b60405180910390a250505061115f60018055565b5050565b61116b61139f565b6001600160a01b03811661119e576000604051631e4fbdf760e01b81526004016111959190611c5d565b60405180910390fd5b610844816115cb565b6001600160a01b0382166000908152600a602052604090206111c990826117fc565b151560000361115f5760405163ed15e6cf60e01b815260048101829052602401611195565b600181108061121c57507f000000000000000000000000000000000000000000000000000000000000000081115b1561084457604051639b1b8a8960e01b815260048101829052602401611195565b6000818152600b6020526040812060028101546001909101546112609190611dc8565b92915050565b6000806003611276600185611ddb565b8154811061128657611286611e27565b60009182526020822001549150849080805b868110156112d9576127106112ad8686611ebf565b6112b79190611ed6565b92506112c38385611dc8565b93506112cf8383611dc8565b9150600101611298565b509695505050505050565b60055481111561084457600554604051633737b70960e11b815260040161119591815260200190565b60006112607f000000000000000000000000000000000000000000000000000000000000000083611ebf565b60006113454284611ddb565b905060006113538383611dc8565b90507f000000000000000000000000000000000000000000000000000000000000000081111561139957604051631c9ece5d60e31b815260048101829052602401611195565b50505050565b336113a8610b70565b6001600160a01b0316146109e9573360405163118cdaa760e01b81526004016111959190611c5d565b8060000361084457604051633728b83d60e01b815260048101829052602401611195565b600854811115610844576008546040516359a0bf0d60e01b815260040161119591815260200190565b6000611260825490565b60006114348383611808565b9392505050565b6107d081111561084457604051632e109e9f60e01b815260048101829052602401611195565b60026001540361148457604051633ee5aeb560e01b815260040160405180910390fd5b6002600155565b6000818152600b60205260409020600401544210610844576000818152600b60205260409081902060049081015491516302794b9b60e61b815261119592910190815260200190565b600082821015806114e55750828410155b806114f05750600454155b156114fd57506000611553565b60006115098385611ddb565b905060006115178686611ddb565b90506000818360045461152a9190611ebf565b6115349190611ed6565b9050612710611543828a611ebf565b61154d9190611ed6565b93505050505b949350505050565b60006114348383611832565b6040516001600160a01b038381166024830152604482018390526115c691859182169063a9059cbb906064015b604051602081830303815290604052915060e01b6020820180516001600160e01b038381831617835250505050611925565b505050565b600080546001600160a01b038381166001600160a01b0319831681178455604051919092169283917f8be0079c531659141344cd1fd0a4f28419497f9722a3daafe3b4186f6b6457e09190a35050565b6040516001600160a01b0384811660248301528381166044830152606482018390526113999186918216906323b872dd90608401611594565b8060000361084457604051636e4de3c960e11b815260006004820152602401611195565b6000818152600b6020526040902060040154421015610844576000818152600b60205260409081902060018101546004918201549251637d1a0f7560e11b8152611195938593909101611e11565b80518015806116d55750600481115b8061172a57507f00000000000000000000000000000000000000000000000000000000000000001580159061172a57507f00000000000000000000000000000000000000000000000000000000000000008114155b1561174b5760405163b20b89bf60e01b815260048101829052602401611195565b60005b818110156115c65780158015906117a3575082818151811061177257611772611e27565b6020026020010151836001836117889190611ddb565b8151811061179857611798611e27565b602002602001015110155b156117c6578260405160016226da7960e01b031981526004016111959190611c05565b6117e88382815181106117db576117db611e27565b602002602001015161197f565b60010161174e565b600061143483836119a5565b600061143483836119ef565b600082600001828154811061181f5761181f611e27565b9060005260206000200154905092915050565b6000818152600183016020526040812054801561191b576000611856600183611ddb565b855490915060009061186a90600190611ddb565b90508082146118cf57600086600001828154811061188a5761188a611e27565b90600052602060002001549050808760000184815481106118ad576118ad611e27565b6000918252602080832090910192909255918252600188019052604090208390555b85548690806118e0576118e0611ef8565b600190038181906000526020600020016000905590558560010160008681526020019081526020016000206000905560019350505050611260565b6000915050611260565b600061193a6001600160a01b03841683611a07565b9050805160001415801561195f57508080602001905181019061195d9190611f0e565b155b156115c65782604051635274afe760e01b81526004016111959190611c5d565b61271081111561084457604051632e109e9f60e01b815260048101829052602401611195565b60006119b183836119ef565b6119e757508154600181810184556000848152602080822090930184905584548482528286019093526040902091909155611260565b506000611260565b60009081526001919091016020526040902054151590565b60606114348383600084600080856001600160a01b03168486604051611a2d9190611f30565b60006040518083038185875af1925050503d8060008114611a6a576040519150601f19603f3d011682016040523d82523d6000602084013e611a6f565b606091505b5091509150611a7f868383611a89565b9695505050505050565b606082611a9e57611a9982611adc565b611434565b8151158015611ab557506001600160a01b0384163b155b15611ad55783604051639996b31560e01b81526004016111959190611c5d565b5080611434565b805115611aec5780518082602001fd5b604051630a12f52160e11b815260040160405180910390fd5b828054828255906000526020600020908101928215611b40579160200282015b82811115611b40578251825591602001919060010190611b25565b50611b4c929150611b50565b5090565b5b80821115611b4c5760008155600101611b51565b60008060408385031215611b7857600080fd5b50508035926020909101359150565b600060208284031215611b9957600080fd5b5035919050565b600060208284031215611bb257600080fd5b81356001600160a01b038116811461143457600080fd5b60008151808452602080850194506020840160005b83811015611bfa57815187529582019590820190600101611bde565b509495945050505050565b6020815260006114346020830184611bc9565b87815286602082015285604082015284606082015283608082015260e060a08201526000611c4960e0830185611bc9565b90508260c083015298975050505050505050565b6001600160a01b0391909116815260200190565b634e487b7160e01b600052604160045260246000fd5b60006020808385031215611c9a57600080fd5b82356001600160401b0380821115611cb157600080fd5b818501915085601f830112611cc557600080fd5b813581811115611cd757611cd7611c71565b8060051b604051601f19603f83011681018181108582111715611cfc57611cfc611c71565b604052918252848201925083810185019188831115611d1a57600080fd5b938501935b82851015611d3857843584529385019392850192611d1f565b98975050505050505050565b602080825282518282018190526000919060409081850190868401855b82811015611da55781518051855286810151878601528581015186860152606080820151908601526080908101519085015260a09093019290850190600101611d61565b5091979650505050505050565b634e487b7160e01b600052601160045260246000fd5b8082018082111561126057611260611db2565b8181038181111561126057611260611db2565b948552602085019390935260408401919091526060830152608082015260a00190565b9283526020830191909152604082015260600190565b634e487b7160e01b600052603260045260246000fd5b604081526000611e506040830185611bc9565b90508260208301529392505050565b6020808252825482820181905260008481528281209092916040850190845b81811015611e9a57835483526001938401939285019201611e7e565b50909695505050505050565b600060018201611eb857611eb8611db2565b5060010190565b808202811582820484141761126057611260611db2565b600082611ef357634e487b7160e01b600052601260045260246000fd5b500490565b634e487b7160e01b600052603160045260246000fd5b600060208284031215611f2057600080fd5b8151801515811461143457600080fd5b6000825160005b81811015611f515760208186018101518583015201611f37565b50600092019182525091905056fea264697066735822122085392191e47d817cf2d6171023604916801a14921aa84e8324a85224a23afbb564736f6c63430008180033",
  "linkReferences": {},
  "deployedLinkReferences": {}
}